{
	"data": {
		"bytecode": {
			"linkReferences": {},
			"object": "608060405234801561001057600080fd5b50610a53806100206000396000f3fe608060405234801561001057600080fd5b50600436106100575760003560e01c806327cefa371461005c57806380599e4b1461008c578063a6f40b0d146100a8578063b2b0255c146100d8578063f278c12914610109575b600080fd5b61007660048036038101906100719190610452565b610139565b60405161008391906104ab565b60405180910390f35b6100a660048036038101906100a1919061060c565b61020c565b005b6100c260048036038101906100bd91906106b7565b610239565b6040516100cf91906104ab565b60405180910390f35b6100f260048036038101906100ed91906106f7565b61026a565b604051610100929190610762565b60405180910390f35b610123600480360381019061011e919061078b565b6102c1565b60405161013091906104ab565b60405180910390f35b600080838360405160200161014f92919061082f565b6040516020818303038152906040528051906020012090506000805b60016000848152602001908152602001600020805490508110156101d9576001600084815260200190815260200160002081815481106101ae576101ad61085b565b5b9060005260206000200154826101c491906108b9565b915080806101d1906108ed565b91505061016b565b5060006001600084815260200190815260200160002080549050826101fe9190610964565b905080935050505092915050565b60008160405161021c9190610a06565b9081526020016040518091039020600061023691906103bd565b50565b6001602052816000526040600020818154811061025557600080fd5b90600052602060002001600091509150505481565b600082805160208101820180518482526020830160208501208183528095505050505050818154811061029c57600080fd5b9060005260206000209060020201600091509150508060000154908060010154905082565b60008084846040516020016102d792919061082f565b604051602081830303815290604052805190602001209050600160008281526020019081526020016000208390806001815401808255809150506001900390600052602060002001600090919091909150556000866040516103399190610a06565b90815260200160405180910390206040518060400160405280878152602001868152509080600181540180825580915050600190039060005260206000209060020201600090919091909150600082015181600001556020820151816001015550506001600082815260200190815260200160002080549050915050949350505050565b50805460008255600202906000526020600020908101906103de91906103e1565b50565b5b80821115610404576000808201600090556001820160009055506002016103e2565b5090565b6000604051905090565b600080fd5b600080fd5b6000819050919050565b61042f8161041c565b811461043a57600080fd5b50565b60008135905061044c81610426565b92915050565b6000806040838503121561046957610468610412565b5b60006104778582860161043d565b92505060206104888582860161043d565b9150509250929050565b6000819050919050565b6104a581610492565b82525050565b60006020820190506104c0600083018461049c565b92915050565b600080fd5b600080fd5b6000601f19601f8301169050919050565b7f4e487b7100000000000000000000000000000000000000000000000000000000600052604160045260246000fd5b610519826104d0565b810181811067ffffffffffffffff82111715610538576105376104e1565b5b80604052505050565b600061054b610408565b90506105578282610510565b919050565b600067ffffffffffffffff821115610577576105766104e1565b5b610580826104d0565b9050602081019050919050565b82818337600083830152505050565b60006105af6105aa8461055c565b610541565b9050828152602081018484840111156105cb576105ca6104cb565b5b6105d684828561058d565b509392505050565b600082601f8301126105f3576105f26104c6565b5b813561060384826020860161059c565b91505092915050565b60006020828403121561062257610621610412565b5b600082013567ffffffffffffffff8111156106405761063f610417565b5b61064c848285016105de565b91505092915050565b6000819050919050565b61066881610655565b811461067357600080fd5b50565b6000813590506106858161065f565b92915050565b61069481610492565b811461069f57600080fd5b50565b6000813590506106b18161068b565b92915050565b600080604083850312156106ce576106cd610412565b5b60006106dc85828601610676565b92505060206106ed858286016106a2565b9150509250929050565b6000806040838503121561070e5761070d610412565b5b600083013567ffffffffffffffff81111561072c5761072b610417565b5b610738858286016105de565b9250506020610749858286016106a2565b9150509250929050565b61075c8161041c565b82525050565b60006040820190506107776000830185610753565b6107846020830184610753565b9392505050565b600080600080608085870312156107a5576107a4610412565b5b600085013567ffffffffffffffff8111156107c3576107c2610417565b5b6107cf878288016105de565b94505060206107e08782880161043d565b93505060406107f18782880161043d565b9250506060610802878288016106a2565b91505092959194509250565b6000819050919050565b6108296108248261041c565b61080e565b82525050565b600061083b8285610818565b60208201915061084b8284610818565b6020820191508190509392505050565b7f4e487b7100000000000000000000000000000000000000000000000000000000600052603260045260246000fd5b7f4e487b7100000000000000000000000000000000000000000000000000000000600052601160045260246000fd5b60006108c482610492565b91506108cf83610492565b92508282019050808211156108e7576108e661088a565b5b92915050565b60006108f882610492565b91507fffffffffffffffffffffffffffffffffffffffffffffffffffffffffffffffff820361092a5761092961088a565b5b600182019050919050565b7f4e487b7100000000000000000000000000000000000000000000000000000000600052601260045260246000fd5b600061096f82610492565b915061097a83610492565b92508261098a57610989610935565b5b828204905092915050565b600081519050919050565b600081905092915050565b60005b838110156109c95780820151818401526020810190506109ae565b60008484015250505050565b60006109e082610995565b6109ea81856109a0565b93506109fa8185602086016109ab565b80840191505092915050565b6000610a1282846109d5565b91508190509291505056fea2646970667358221220c2d87d552090abc333d1a8a7a45936aaf218f3bde067f9a82123cbefdee9964064736f6c63430008120033",
			"opcodes": "PUSH1 0x80 PUSH1 0x40 MSTORE CALLVALUE DUP1 ISZERO PUSH2 0x10 JUMPI PUSH1 0x0 DUP1 REVERT JUMPDEST POP PUSH2 0xA53 DUP1 PUSH2 0x20 PUSH1 0x0 CODECOPY PUSH1 0x0 RETURN INVALID PUSH1 0x80 PUSH1 0x40 MSTORE CALLVALUE DUP1 ISZERO PUSH2 0x10 JUMPI PUSH1 0x0 DUP1 REVERT JUMPDEST POP PUSH1 0x4 CALLDATASIZE LT PUSH2 0x57 JUMPI PUSH1 0x0 CALLDATALOAD PUSH1 0xE0 SHR DUP1 PUSH4 0x27CEFA37 EQ PUSH2 0x5C JUMPI DUP1 PUSH4 0x80599E4B EQ PUSH2 0x8C JUMPI DUP1 PUSH4 0xA6F40B0D EQ PUSH2 0xA8 JUMPI DUP1 PUSH4 0xB2B0255C EQ PUSH2 0xD8 JUMPI DUP1 PUSH4 0xF278C129 EQ PUSH2 0x109 JUMPI JUMPDEST PUSH1 0x0 DUP1 REVERT JUMPDEST PUSH2 0x76 PUSH1 0x4 DUP1 CALLDATASIZE SUB DUP2 ADD SWAP1 PUSH2 0x71 SWAP2 SWAP1 PUSH2 0x452 JUMP JUMPDEST PUSH2 0x139 JUMP JUMPDEST PUSH1 0x40 MLOAD PUSH2 0x83 SWAP2 SWAP1 PUSH2 0x4AB JUMP JUMPDEST PUSH1 0x40 MLOAD DUP1 SWAP2 SUB SWAP1 RETURN JUMPDEST PUSH2 0xA6 PUSH1 0x4 DUP1 CALLDATASIZE SUB DUP2 ADD SWAP1 PUSH2 0xA1 SWAP2 SWAP1 PUSH2 0x60C JUMP JUMPDEST PUSH2 0x20C JUMP JUMPDEST STOP JUMPDEST PUSH2 0xC2 PUSH1 0x4 DUP1 CALLDATASIZE SUB DUP2 ADD SWAP1 PUSH2 0xBD SWAP2 SWAP1 PUSH2 0x6B7 JUMP JUMPDEST PUSH2 0x239 JUMP JUMPDEST PUSH1 0x40 MLOAD PUSH2 0xCF SWAP2 SWAP1 PUSH2 0x4AB JUMP JUMPDEST PUSH1 0x40 MLOAD DUP1 SWAP2 SUB SWAP1 RETURN JUMPDEST PUSH2 0xF2 PUSH1 0x4 DUP1 CALLDATASIZE SUB DUP2 ADD SWAP1 PUSH2 0xED SWAP2 SWAP1 PUSH2 0x6F7 JUMP JUMPDEST PUSH2 0x26A JUMP JUMPDEST PUSH1 0x40 MLOAD PUSH2 0x100 SWAP3 SWAP2 SWAP1 PUSH2 0x762 JUMP JUMPDEST PUSH1 0x40 MLOAD DUP1 SWAP2 SUB SWAP1 RETURN JUMPDEST PUSH2 0x123 PUSH1 0x4 DUP1 CALLDATASIZE SUB DUP2 ADD SWAP1 PUSH2 0x11E SWAP2 SWAP1 PUSH2 0x78B JUMP JUMPDEST PUSH2 0x2C1 JUMP JUMPDEST PUSH1 0x40 MLOAD PUSH2 0x130 SWAP2 SWAP1 PUSH2 0x4AB JUMP JUMPDEST PUSH1 0x40 MLOAD DUP1 SWAP2 SUB SWAP1 RETURN JUMPDEST PUSH1 0x0 DUP1 DUP4 DUP4 PUSH1 0x40 MLOAD PUSH1 0x20 ADD PUSH2 0x14F SWAP3 SWAP2 SWAP1 PUSH2 0x82F JUMP JUMPDEST PUSH1 0x40 MLOAD PUSH1 0x20 DUP2 DUP4 SUB SUB DUP2 MSTORE SWAP1 PUSH1 0x40 MSTORE DUP1 MLOAD SWAP1 PUSH1 0x20 ADD KECCAK256 SWAP1 POP PUSH1 0x0 DUP1 JUMPDEST PUSH1 0x1 PUSH1 0x0 DUP5 DUP2 MSTORE PUSH1 0x20 ADD SWAP1 DUP2 MSTORE PUSH1 0x20 ADD PUSH1 0x0 KECCAK256 DUP1 SLOAD SWAP1 POP DUP2 LT ISZERO PUSH2 0x1D9 JUMPI PUSH1 0x1 PUSH1 0x0 DUP5 DUP2 MSTORE PUSH1 0x20 ADD SWAP1 DUP2 MSTORE PUSH1 0x20 ADD PUSH1 0x0 KECCAK256 DUP2 DUP2 SLOAD DUP2 LT PUSH2 0x1AE JUMPI PUSH2 0x1AD PUSH2 0x85B JUMP JUMPDEST JUMPDEST SWAP1 PUSH1 0x0 MSTORE PUSH1 0x20 PUSH1 0x0 KECCAK256 ADD SLOAD DUP3 PUSH2 0x1C4 SWAP2 SWAP1 PUSH2 0x8B9 JUMP JUMPDEST SWAP2 POP DUP1 DUP1 PUSH2 0x1D1 SWAP1 PUSH2 0x8ED JUMP JUMPDEST SWAP2 POP POP PUSH2 0x16B JUMP JUMPDEST POP PUSH1 0x0 PUSH1 0x1 PUSH1 0x0 DUP5 DUP2 MSTORE PUSH1 0x20 ADD SWAP1 DUP2 MSTORE PUSH1 0x20 ADD PUSH1 0x0 KECCAK256 DUP1 SLOAD SWAP1 POP DUP3 PUSH2 0x1FE SWAP2 SWAP1 PUSH2 0x964 JUMP JUMPDEST SWAP1 POP DUP1 SWAP4 POP POP POP POP SWAP3 SWAP2 POP POP JUMP JUMPDEST PUSH1 0x0 DUP2 PUSH1 0x40 MLOAD PUSH2 0x21C SWAP2 SWAP1 PUSH2 0xA06 JUMP JUMPDEST SWAP1 DUP2 MSTORE PUSH1 0x20 ADD PUSH1 0x40 MLOAD DUP1 SWAP2 SUB SWAP1 KECCAK256 PUSH1 0x0 PUSH2 0x236 SWAP2 SWAP1 PUSH2 0x3BD JUMP JUMPDEST POP JUMP JUMPDEST PUSH1 0x1 PUSH1 0x20 MSTORE DUP2 PUSH1 0x0 MSTORE PUSH1 0x40 PUSH1 0x0 KECCAK256 DUP2 DUP2 SLOAD DUP2 LT PUSH2 0x255 JUMPI PUSH1 0x0 DUP1 REVERT JUMPDEST SWAP1 PUSH1 0x0 MSTORE PUSH1 0x20 PUSH1 0x0 KECCAK256 ADD PUSH1 0x0 SWAP2 POP SWAP2 POP POP SLOAD DUP2 JUMP JUMPDEST PUSH1 0x0 DUP3 DUP1 MLOAD PUSH1 0x20 DUP2 ADD DUP3 ADD DUP1 MLOAD DUP5 DUP3 MSTORE PUSH1 0x20 DUP4 ADD PUSH1 0x20 DUP6 ADD KECCAK256 DUP2 DUP4 MSTORE DUP1 SWAP6 POP POP POP POP POP POP DUP2 DUP2 SLOAD DUP2 LT PUSH2 0x29C JUMPI PUSH1 0x0 DUP1 REVERT JUMPDEST SWAP1 PUSH1 0x0 MSTORE PUSH1 0x20 PUSH1 0x0 KECCAK256 SWAP1 PUSH1 0x2 MUL ADD PUSH1 0x0 SWAP2 POP SWAP2 POP POP DUP1 PUSH1 0x0 ADD SLOAD SWAP1 DUP1 PUSH1 0x1 ADD SLOAD SWAP1 POP DUP3 JUMP JUMPDEST PUSH1 0x0 DUP1 DUP5 DUP5 PUSH1 0x40 MLOAD PUSH1 0x20 ADD PUSH2 0x2D7 SWAP3 SWAP2 SWAP1 PUSH2 0x82F JUMP JUMPDEST PUSH1 0x40 MLOAD PUSH1 0x20 DUP2 DUP4 SUB SUB DUP2 MSTORE SWAP1 PUSH1 0x40 MSTORE DUP1 MLOAD SWAP1 PUSH1 0x20 ADD KECCAK256 SWAP1 POP PUSH1 0x1 PUSH1 0x0 DUP3 DUP2 MSTORE PUSH1 0x20 ADD SWAP1 DUP2 MSTORE PUSH1 0x20 ADD PUSH1 0x0 KECCAK256 DUP4 SWAP1 DUP1 PUSH1 0x1 DUP2 SLOAD ADD DUP1 DUP3 SSTORE DUP1 SWAP2 POP POP PUSH1 0x1 SWAP1 SUB SWAP1 PUSH1 0x0 MSTORE PUSH1 0x20 PUSH1 0x0 KECCAK256 ADD PUSH1 0x0 SWAP1 SWAP2 SWAP1 SWAP2 SWAP1 SWAP2 POP SSTORE PUSH1 0x0 DUP7 PUSH1 0x40 MLOAD PUSH2 0x339 SWAP2 SWAP1 PUSH2 0xA06 JUMP JUMPDEST SWAP1 DUP2 MSTORE PUSH1 0x20 ADD PUSH1 0x40 MLOAD DUP1 SWAP2 SUB SWAP1 KECCAK256 PUSH1 0x40 MLOAD DUP1 PUSH1 0x40 ADD PUSH1 0x40 MSTORE DUP1 DUP8 DUP2 MSTORE PUSH1 0x20 ADD DUP7 DUP2 MSTORE POP SWAP1 DUP1 PUSH1 0x1 DUP2 SLOAD ADD DUP1 DUP3 SSTORE DUP1 SWAP2 POP POP PUSH1 0x1 SWAP1 SUB SWAP1 PUSH1 0x0 MSTORE PUSH1 0x20 PUSH1 0x0 KECCAK256 SWAP1 PUSH1 0x2 MUL ADD PUSH1 0x0 SWAP1 SWAP2 SWAP1 SWAP2 SWAP1 SWAP2 POP PUSH1 0x0 DUP3 ADD MLOAD DUP2 PUSH1 0x0 ADD SSTORE PUSH1 0x20 DUP3 ADD MLOAD DUP2 PUSH1 0x1 ADD SSTORE POP POP PUSH1 0x1 PUSH1 0x0 DUP3 DUP2 MSTORE PUSH1 0x20 ADD SWAP1 DUP2 MSTORE PUSH1 0x20 ADD PUSH1 0x0 KECCAK256 DUP1 SLOAD SWAP1 POP SWAP2 POP POP SWAP5 SWAP4 POP POP POP POP JUMP JUMPDEST POP DUP1 SLOAD PUSH1 0x0 DUP3 SSTORE PUSH1 0x2 MUL SWAP1 PUSH1 0x0 MSTORE PUSH1 0x20 PUSH1 0x0 KECCAK256 SWAP1 DUP2 ADD SWAP1 PUSH2 0x3DE SWAP2 SWAP1 PUSH2 0x3E1 JUMP JUMPDEST POP JUMP JUMPDEST JUMPDEST DUP1 DUP3 GT ISZERO PUSH2 0x404 JUMPI PUSH1 0x0 DUP1 DUP3 ADD PUSH1 0x0 SWAP1 SSTORE PUSH1 0x1 DUP3 ADD PUSH1 0x0 SWAP1 SSTORE POP PUSH1 0x2 ADD PUSH2 0x3E2 JUMP JUMPDEST POP SWAP1 JUMP JUMPDEST PUSH1 0x0 PUSH1 0x40 MLOAD SWAP1 POP SWAP1 JUMP JUMPDEST PUSH1 0x0 DUP1 REVERT JUMPDEST PUSH1 0x0 DUP1 REVERT JUMPDEST PUSH1 0x0 DUP2 SWAP1 POP SWAP2 SWAP1 POP JUMP JUMPDEST PUSH2 0x42F DUP2 PUSH2 0x41C JUMP JUMPDEST DUP2 EQ PUSH2 0x43A JUMPI PUSH1 0x0 DUP1 REVERT JUMPDEST POP JUMP JUMPDEST PUSH1 0x0 DUP2 CALLDATALOAD SWAP1 POP PUSH2 0x44C DUP2 PUSH2 0x426 JUMP JUMPDEST SWAP3 SWAP2 POP POP JUMP JUMPDEST PUSH1 0x0 DUP1 PUSH1 0x40 DUP4 DUP6 SUB SLT ISZERO PUSH2 0x469 JUMPI PUSH2 0x468 PUSH2 0x412 JUMP JUMPDEST JUMPDEST PUSH1 0x0 PUSH2 0x477 DUP6 DUP3 DUP7 ADD PUSH2 0x43D JUMP JUMPDEST SWAP3 POP POP PUSH1 0x20 PUSH2 0x488 DUP6 DUP3 DUP7 ADD PUSH2 0x43D JUMP JUMPDEST SWAP2 POP POP SWAP3 POP SWAP3 SWAP1 POP JUMP JUMPDEST PUSH1 0x0 DUP2 SWAP1 POP SWAP2 SWAP1 POP JUMP JUMPDEST PUSH2 0x4A5 DUP2 PUSH2 0x492 JUMP JUMPDEST DUP3 MSTORE POP POP JUMP JUMPDEST PUSH1 0x0 PUSH1 0x20 DUP3 ADD SWAP1 POP PUSH2 0x4C0 PUSH1 0x0 DUP4 ADD DUP5 PUSH2 0x49C JUMP JUMPDEST SWAP3 SWAP2 POP POP JUMP JUMPDEST PUSH1 0x0 DUP1 REVERT JUMPDEST PUSH1 0x0 DUP1 REVERT JUMPDEST PUSH1 0x0 PUSH1 0x1F NOT PUSH1 0x1F DUP4 ADD AND SWAP1 POP SWAP2 SWAP1 POP JUMP JUMPDEST PUSH32 0x4E487B7100000000000000000000000000000000000000000000000000000000 PUSH1 0x0 MSTORE PUSH1 0x41 PUSH1 0x4 MSTORE PUSH1 0x24 PUSH1 0x0 REVERT JUMPDEST PUSH2 0x519 DUP3 PUSH2 0x4D0 JUMP JUMPDEST DUP2 ADD DUP2 DUP2 LT PUSH8 0xFFFFFFFFFFFFFFFF DUP3 GT OR ISZERO PUSH2 0x538 JUMPI PUSH2 0x537 PUSH2 0x4E1 JUMP JUMPDEST JUMPDEST DUP1 PUSH1 0x40 MSTORE POP POP POP JUMP JUMPDEST PUSH1 0x0 PUSH2 0x54B PUSH2 0x408 JUMP JUMPDEST SWAP1 POP PUSH2 0x557 DUP3 DUP3 PUSH2 0x510 JUMP JUMPDEST SWAP2 SWAP1 POP JUMP JUMPDEST PUSH1 0x0 PUSH8 0xFFFFFFFFFFFFFFFF DUP3 GT ISZERO PUSH2 0x577 JUMPI PUSH2 0x576 PUSH2 0x4E1 JUMP JUMPDEST JUMPDEST PUSH2 0x580 DUP3 PUSH2 0x4D0 JUMP JUMPDEST SWAP1 POP PUSH1 0x20 DUP2 ADD SWAP1 POP SWAP2 SWAP1 POP JUMP JUMPDEST DUP3 DUP2 DUP4 CALLDATACOPY PUSH1 0x0 DUP4 DUP4 ADD MSTORE POP POP POP JUMP JUMPDEST PUSH1 0x0 PUSH2 0x5AF PUSH2 0x5AA DUP5 PUSH2 0x55C JUMP JUMPDEST PUSH2 0x541 JUMP JUMPDEST SWAP1 POP DUP3 DUP2 MSTORE PUSH1 0x20 DUP2 ADD DUP5 DUP5 DUP5 ADD GT ISZERO PUSH2 0x5CB JUMPI PUSH2 0x5CA PUSH2 0x4CB JUMP JUMPDEST JUMPDEST PUSH2 0x5D6 DUP5 DUP3 DUP6 PUSH2 0x58D JUMP JUMPDEST POP SWAP4 SWAP3 POP POP POP JUMP JUMPDEST PUSH1 0x0 DUP3 PUSH1 0x1F DUP4 ADD SLT PUSH2 0x5F3 JUMPI PUSH2 0x5F2 PUSH2 0x4C6 JUMP JUMPDEST JUMPDEST DUP2 CALLDATALOAD PUSH2 0x603 DUP5 DUP3 PUSH1 0x20 DUP7 ADD PUSH2 0x59C JUMP JUMPDEST SWAP2 POP POP SWAP3 SWAP2 POP POP JUMP JUMPDEST PUSH1 0x0 PUSH1 0x20 DUP3 DUP5 SUB SLT ISZERO PUSH2 0x622 JUMPI PUSH2 0x621 PUSH2 0x412 JUMP JUMPDEST JUMPDEST PUSH1 0x0 DUP3 ADD CALLDATALOAD PUSH8 0xFFFFFFFFFFFFFFFF DUP2 GT ISZERO PUSH2 0x640 JUMPI PUSH2 0x63F PUSH2 0x417 JUMP JUMPDEST JUMPDEST PUSH2 0x64C DUP5 DUP3 DUP6 ADD PUSH2 0x5DE JUMP JUMPDEST SWAP2 POP POP SWAP3 SWAP2 POP POP JUMP JUMPDEST PUSH1 0x0 DUP2 SWAP1 POP SWAP2 SWAP1 POP JUMP JUMPDEST PUSH2 0x668 DUP2 PUSH2 0x655 JUMP JUMPDEST DUP2 EQ PUSH2 0x673 JUMPI PUSH1 0x0 DUP1 REVERT JUMPDEST POP JUMP JUMPDEST PUSH1 0x0 DUP2 CALLDATALOAD SWAP1 POP PUSH2 0x685 DUP2 PUSH2 0x65F JUMP JUMPDEST SWAP3 SWAP2 POP POP JUMP JUMPDEST PUSH2 0x694 DUP2 PUSH2 0x492 JUMP JUMPDEST DUP2 EQ PUSH2 0x69F JUMPI PUSH1 0x0 DUP1 REVERT JUMPDEST POP JUMP JUMPDEST PUSH1 0x0 DUP2 CALLDATALOAD SWAP1 POP PUSH2 0x6B1 DUP2 PUSH2 0x68B JUMP JUMPDEST SWAP3 SWAP2 POP POP JUMP JUMPDEST PUSH1 0x0 DUP1 PUSH1 0x40 DUP4 DUP6 SUB SLT ISZERO PUSH2 0x6CE JUMPI PUSH2 0x6CD PUSH2 0x412 JUMP JUMPDEST JUMPDEST PUSH1 0x0 PUSH2 0x6DC DUP6 DUP3 DUP7 ADD PUSH2 0x676 JUMP JUMPDEST SWAP3 POP POP PUSH1 0x20 PUSH2 0x6ED DUP6 DUP3 DUP7 ADD PUSH2 0x6A2 JUMP JUMPDEST SWAP2 POP POP SWAP3 POP SWAP3 SWAP1 POP JUMP JUMPDEST PUSH1 0x0 DUP1 PUSH1 0x40 DUP4 DUP6 SUB SLT ISZERO PUSH2 0x70E JUMPI PUSH2 0x70D PUSH2 0x412 JUMP JUMPDEST JUMPDEST PUSH1 0x0 DUP4 ADD CALLDATALOAD PUSH8 0xFFFFFFFFFFFFFFFF DUP2 GT ISZERO PUSH2 0x72C JUMPI PUSH2 0x72B PUSH2 0x417 JUMP JUMPDEST JUMPDEST PUSH2 0x738 DUP6 DUP3 DUP7 ADD PUSH2 0x5DE JUMP JUMPDEST SWAP3 POP POP PUSH1 0x20 PUSH2 0x749 DUP6 DUP3 DUP7 ADD PUSH2 0x6A2 JUMP JUMPDEST SWAP2 POP POP SWAP3 POP SWAP3 SWAP1 POP JUMP JUMPDEST PUSH2 0x75C DUP2 PUSH2 0x41C JUMP JUMPDEST DUP3 MSTORE POP POP JUMP JUMPDEST PUSH1 0x0 PUSH1 0x40 DUP3 ADD SWAP1 POP PUSH2 0x777 PUSH1 0x0 DUP4 ADD DUP6 PUSH2 0x753 JUMP JUMPDEST PUSH2 0x784 PUSH1 0x20 DUP4 ADD DUP5 PUSH2 0x753 JUMP JUMPDEST SWAP4 SWAP3 POP POP POP JUMP JUMPDEST PUSH1 0x0 DUP1 PUSH1 0x0 DUP1 PUSH1 0x80 DUP6 DUP8 SUB SLT ISZERO PUSH2 0x7A5 JUMPI PUSH2 0x7A4 PUSH2 0x412 JUMP JUMPDEST JUMPDEST PUSH1 0x0 DUP6 ADD CALLDATALOAD PUSH8 0xFFFFFFFFFFFFFFFF DUP2 GT ISZERO PUSH2 0x7C3 JUMPI PUSH2 0x7C2 PUSH2 0x417 JUMP JUMPDEST JUMPDEST PUSH2 0x7CF DUP8 DUP3 DUP9 ADD PUSH2 0x5DE JUMP JUMPDEST SWAP5 POP POP PUSH1 0x20 PUSH2 0x7E0 DUP8 DUP3 DUP9 ADD PUSH2 0x43D JUMP JUMPDEST SWAP4 POP POP PUSH1 0x40 PUSH2 0x7F1 DUP8 DUP3 DUP9 ADD PUSH2 0x43D JUMP JUMPDEST SWAP3 POP POP PUSH1 0x60 PUSH2 0x802 DUP8 DUP3 DUP9 ADD PUSH2 0x6A2 JUMP JUMPDEST SWAP2 POP POP SWAP3 SWAP6 SWAP2 SWAP5 POP SWAP3 POP JUMP JUMPDEST PUSH1 0x0 DUP2 SWAP1 POP SWAP2 SWAP1 POP JUMP JUMPDEST PUSH2 0x829 PUSH2 0x824 DUP3 PUSH2 0x41C JUMP JUMPDEST PUSH2 0x80E JUMP JUMPDEST DUP3 MSTORE POP POP JUMP JUMPDEST PUSH1 0x0 PUSH2 0x83B DUP3 DUP6 PUSH2 0x818 JUMP JUMPDEST PUSH1 0x20 DUP3 ADD SWAP2 POP PUSH2 0x84B DUP3 DUP5 PUSH2 0x818 JUMP JUMPDEST PUSH1 0x20 DUP3 ADD SWAP2 POP DUP2 SWAP1 POP SWAP4 SWAP3 POP POP POP JUMP JUMPDEST PUSH32 0x4E487B7100000000000000000000000000000000000000000000000000000000 PUSH1 0x0 MSTORE PUSH1 0x32 PUSH1 0x4 MSTORE PUSH1 0x24 PUSH1 0x0 REVERT JUMPDEST PUSH32 0x4E487B7100000000000000000000000000000000000000000000000000000000 PUSH1 0x0 MSTORE PUSH1 0x11 PUSH1 0x4 MSTORE PUSH1 0x24 PUSH1 0x0 REVERT JUMPDEST PUSH1 0x0 PUSH2 0x8C4 DUP3 PUSH2 0x492 JUMP JUMPDEST SWAP2 POP PUSH2 0x8CF DUP4 PUSH2 0x492 JUMP JUMPDEST SWAP3 POP DUP3 DUP3 ADD SWAP1 POP DUP1 DUP3 GT ISZERO PUSH2 0x8E7 JUMPI PUSH2 0x8E6 PUSH2 0x88A JUMP JUMPDEST JUMPDEST SWAP3 SWAP2 POP POP JUMP JUMPDEST PUSH1 0x0 PUSH2 0x8F8 DUP3 PUSH2 0x492 JUMP JUMPDEST SWAP2 POP PUSH32 0xFFFFFFFFFFFFFFFFFFFFFFFFFFFFFFFFFFFFFFFFFFFFFFFFFFFFFFFFFFFFFFFF DUP3 SUB PUSH2 0x92A JUMPI PUSH2 0x929 PUSH2 0x88A JUMP JUMPDEST JUMPDEST PUSH1 0x1 DUP3 ADD SWAP1 POP SWAP2 SWAP1 POP JUMP JUMPDEST PUSH32 0x4E487B7100000000000000000000000000000000000000000000000000000000 PUSH1 0x0 MSTORE PUSH1 0x12 PUSH1 0x4 MSTORE PUSH1 0x24 PUSH1 0x0 REVERT JUMPDEST PUSH1 0x0 PUSH2 0x96F DUP3 PUSH2 0x492 JUMP JUMPDEST SWAP2 POP PUSH2 0x97A DUP4 PUSH2 0x492 JUMP JUMPDEST SWAP3 POP DUP3 PUSH2 0x98A JUMPI PUSH2 0x989 PUSH2 0x935 JUMP JUMPDEST JUMPDEST DUP3 DUP3 DIV SWAP1 POP SWAP3 SWAP2 POP POP JUMP JUMPDEST PUSH1 0x0 DUP2 MLOAD SWAP1 POP SWAP2 SWAP1 POP JUMP JUMPDEST PUSH1 0x0 DUP2 SWAP1 POP SWAP3 SWAP2 POP POP JUMP JUMPDEST PUSH1 0x0 JUMPDEST DUP4 DUP2 LT ISZERO PUSH2 0x9C9 JUMPI DUP1 DUP3 ADD MLOAD DUP2 DUP5 ADD MSTORE PUSH1 0x20 DUP2 ADD SWAP1 POP PUSH2 0x9AE JUMP JUMPDEST PUSH1 0x0 DUP5 DUP5 ADD MSTORE POP POP POP POP JUMP JUMPDEST PUSH1 0x0 PUSH2 0x9E0 DUP3 PUSH2 0x995 JUMP JUMPDEST PUSH2 0x9EA DUP2 DUP6 PUSH2 0x9A0 JUMP JUMPDEST SWAP4 POP PUSH2 0x9FA DUP2 DUP6 PUSH1 0x20 DUP7 ADD PUSH2 0x9AB JUMP JUMPDEST DUP1 DUP5 ADD SWAP2 POP POP SWAP3 SWAP2 POP POP JUMP JUMPDEST PUSH1 0x0 PUSH2 0xA12 DUP3 DUP5 PUSH2 0x9D5 JUMP JUMPDEST SWAP2 POP DUP2 SWAP1 POP SWAP3 SWAP2 POP POP JUMP INVALID LOG2 PUSH5 0x6970667358 0x22 SLT KECCAK256 0xC2 0xD8 PUSH30 0x552090ABC333D1A8A7A45936AAF218F3BDE067F9A82123CBEFDEE9964064 PUSH20 0x6F6C634300081200330000000000000000000000 "
		},
		"gasEstimates": {
			"creation": {
				"codeDepositCost": "528600",
				"executionCost": "562",
				"totalCost": "529162"
			},
			"external": {
				"get(int256,int256)": "infinite",
				"myMap(string,uint256)": "infinite",
				"nested(bytes32,uint256)": "infinite",
				"push(string,int256,int256,uint256)": "infinite",
				"remove(string)": "infinite"
			}
		},
		"methodIdentifiers": {
			"get(int256,int256)": "27cefa37",
			"myMap(string,uint256)": "b2b0255c",
			"nested(bytes32,uint256)": "a6f40b0d",
			"push(string,int256,int256,uint256)": "f278c129",
			"remove(string)": "80599e4b"
		}
	},
	"abi": [
		{
			"inputs": [
				{
					"internalType": "int256",
					"name": "_lat",
					"type": "int256"
				},
				{
					"internalType": "int256",
					"name": "_lon",
					"type": "int256"
				}
			],
			"name": "get",
			"outputs": [
				{
					"internalType": "uint256",
					"name": "",
					"type": "uint256"
				}
			],
			"stateMutability": "view",
			"type": "function"
		},
		{
			"inputs": [
				{
					"internalType": "string",
					"name": "",
					"type": "string"
				},
				{
					"internalType": "uint256",
					"name": "",
					"type": "uint256"
				}
			],
			"name": "myMap",
			"outputs": [
				{
					"internalType": "int256",
					"name": "lat",
					"type": "int256"
				},
				{
					"internalType": "int256",
					"name": "lon",
					"type": "int256"
				}
			],
			"stateMutability": "view",
			"type": "function"
		},
		{
			"inputs": [
				{
					"internalType": "bytes32",
					"name": "",
					"type": "bytes32"
				},
				{
					"internalType": "uint256",
					"name": "",
					"type": "uint256"
				}
			],
			"name": "nested",
			"outputs": [
				{
					"internalType": "uint256",
					"name": "",
					"type": "uint256"
				}
			],
			"stateMutability": "view",
			"type": "function"
		},
		{
			"inputs": [
				{
					"internalType": "string",
					"name": "_id",
					"type": "string"
				},
				{
					"internalType": "int256",
					"name": "_lat",
					"type": "int256"
				},
				{
					"internalType": "int256",
					"name": "_lon",
					"type": "int256"
				},
				{
					"internalType": "uint256",
					"name": "_grade",
					"type": "uint256"
				}
			],
			"name": "push",
			"outputs": [
				{
					"internalType": "uint256",
					"name": "",
					"type": "uint256"
				}
			],
			"stateMutability": "nonpayable",
			"type": "function"
		},
		{
			"inputs": [
				{
					"internalType": "string",
					"name": "_addr1",
					"type": "string"
				}
			],
			"name": "remove",
			"outputs": [],
			"stateMutability": "nonpayable",
			"type": "function"
		}
	]
}